:020000041000EA
:10000000971100009381815117150000130505D148
:1000100017160000130686D0098E8145EF004002B6
:10002000170500001305C52BEF004028EF00A02E98
:1000300002452C000146EF0020176F00E027828068
:100040003D432A876371C3029377F700C1E3BDE1A3
:10005000937606FF3D8ABA960CE30CE74107E36D01
:10006000D7FE11E28280B306C3408A0697020000E1
:1000700096966780A6002307B700A306B70023065D
:10008000B700A305B7002305B700A304B7002304F6
:10009000B700A303B7002303B700A302B7002302EE
:1000A000B700A301B7002301B700A300B7002300E6
:1000B000B700828093F5F50F93968500D58D9396C2
:1000C0000501D58D93960502D58D59B793962700D6
:1000D0009702000096968682E78026FA9680C117DE
:0A00E0001D8F3E96E371C3F89DB733
:1000EA00170500001305E54B970700009387674B38
:1000FA006389A700170300F0130323F063030300C7
:04010A00028382806A
:10010E00170500001305A54997050000938525499D
:10011E00898D8D8593D7F503BE95858581C9170386
:0E012E0000F0130343ED63030300028382809D
:10013C009717000083C7C7BD95EB411106E4EFF09C
:10014C001FFA970700F0938727EB89CB1705000060
:10015C0013050539970000F0E78000EAA260854797
:0E016C00171700002306F7BA41018280828037
:10017A00970700F0938767E88DC3411193858180C3
:10018A00170500001305E53506E4970000F0E7803F
:0E019A00C0E6A26041016FF0FFF66FF0BFF605
:1001A800130101FE233C11002338810013040102CE
:1001B800170500001305C50373105530EF00C00480
:1001C800EF004007EF00000A9307050023B007007F
:1001D800EF00400B9307050003B7070013672700DC
:1001E80023B0E700930710002326F4FEF324003021
:1001F80073252034F325403073264034F326103419
:08020800732730346F00000081
:10021000130101FF2334810013040101B7170210F9
:1002200037870000130707D023B0E7001300000052
:0C0230000334810013010101678000000D
:10023C00130101FF2334810013040101B7170210CD
:10024C0003B70700B71702101367070223B0E700C4
:10025C0013000000033481001301010167800000CA
:10026C00130101FF2334810013040101B71702109D
:10027C00138507000334810013010101678000001E
:10028C00130101FF2334810013040101B71702107D
:10029C0013850700033481001301010167800000FE
:0C02AC00AA858146014601456F00000D47
:1002B8004111814522E006E42A84EF006015970782
:1002C80000009387A72D88633C6D91C38297228590
:0402D800EFF01FFE26
:1002DC00011122E8970700F0938707D2170400F06A
:1002EC00130484D1818F26E406EC93D4374081C863
:1002FC00E1173E941C60FD1461148297E5FC426486
:0A030C00E260A26405616FF0DFD229
:10031600011122E84AE0170400F0130444CE17093D
:1003260000F01309C9CD3309894006EC26E41359B8
:1003360039406309090081441C60850421048297C1
:10034600E31C99FE170400F0130464CB170900F0B0
:100356001309E9CA3309894013593940EFF0DFCD53
:100366006309090081441C60850421048297E31C0B
:0E03760099FEE2604264A26402690561828021
:10038400970700009387C72198638337871FB1C3FA
:1003940098477D486342E80605C5131837003E9820
:1003A4002338C81083A8073105463B16E600B3E896
:1003B400C80023A817312338D82089466300D50202
:1003C400930627008E06052798C7B6978CE3014548
:1003D400828093070720233CF71E5DBF83A6473125
:1003E4000145558E930627008E06052723AAC7309C
:0C03F40098C7B6978CE382807D5582800C
:10040000970700F0938707C099C7170500001305E9
:0804100025ED6FF0BFE98280C9
:100418005D71970700009387671852F003BA0700C9
:100428004AF84EF403398A1F56EC5AE85EE486E42B
:10043800A2E026FC62E02A8BAE8B854AFD59630553
:100448000902032489007D346340040293042400D4
:100458008E04CA9463860B0283B7042063827703F1
:100468007D34E114E31834FFA6600664E27442792F
:10047800A279027AE26A426BA26B026C61618280A5
:10048800832789009860FD376389870223B00400B9
:1004980061DB83270931BB968A00032C8900F58F1D
:1004A800812799EF02970327890083378A1F6314EE
:1004B8008701E307F9FA3E8959B723248900C9BFA0
:1004C8008327493183B50410FD8E812681E65A853C
:0A04D8000297D1BF2E850297F9B7F5
:0204E20001A077
:1004E8001000000000000000017A5200017C0101A8
:1004F8001B0D02001C00000018000000A4FCFFFFF8
:100508006800000000440E204881028804440C085A
:10051800000000001C00000038000000ECFCFFFF99
:100528002C00000000440E10448802440C080058B7
:10053800C8440D021C00000058000000F8FCFFFF32
:100548003000000000440E10448802440C08005C8F
:10055800C8440D021C0000007800000008FDFFFFE1
:100568002000000000440E10448802440C08004C8F
:10057800C8440D021C0000009800000008FDFFFFA1
:100588002000000000440E10448802440C08004C6F
:08059800C8440D020000000040
:0805A000C0050010000000007E
:0805A80000000000000000004B
:0805B0003C01001000000000F6
:0805B8007A01001000000000B0
:1005C0000000000000000000F80A00100000000019
:1005D000A80B001000000000580C001000000000E4
:1005E000000000000000000000000000000000000B
:1005F00000000000000000000000000000000000FB
:1006000000000000000000000000000000000000EA
:1006100000000000000000000000000000000000DA
:1006200000000000000000000000000000000000CA
:1006300000000000000000000000000000000000BA
:1006400000000000000000000000000000000000AA
:10065000000000000000000000000000000000009A
:10066000000000000000000000000000000000008A
:10067000000000000000000000000000000000007A
:10068000000000000000000000000000000000006A
:10069000000000000000000000000000000000005A
:1006A0000000000000000000010000000000000049
:1006B0000E33CDAB34126DE6ECDE05000B0000000E
:1006C000000000000000000000000000000000002A
:1006D000000000000000000000000000000000001A
:1006E000000000000000000000000000000000000A
:1006F00000000000000000000000000000000000FA
:080D0800C0050010000000000E
:080D10000004001000000000C7
:0400000510000000E7
:00000001FF
